:100000000C942A000C9447000C9447000C94470071
:100010000C9447000C9447000C9485000C94470006
:100020000C9447000C9447000C9447000C94470034
:100030000C9447000C9447000C9447000C94470024
:100040000C9447000C9447000C9447000C947B00E0
:100050000C94470011241FBECFE5D4E0DEBFCDBF16
:1000600011E0A0E6B0E0ECEBF0E102C005900D92EB
:10007000A836B107D9F711E0A8E6B1E001C01D929A
:10008000AB36B107E1F70E94C2070C945C080C94F0
:100090000000FC01208181E090E002C0880F991FE0
:1000A0006A95E2F7282B20830895FC014081262FD2
:1000B00030E02F5F3F4F8FEF90E0DC0102C0B5953D
:1000C000A7952A95E2F702C0880F991F6A95E2F773
:1000D0008A0F8423808308952FEF27BB8D9A78940D
:1000E00081EA8FBD82E08EBD81E090E09DBD8CBD38
:1000F00021BB27BB08951F920F920FB60F921124B8
:100100000F900FBE0F901F9018951F920F920FB671
:100110000F9211240F900FBE0F901F90189590E032
:100120009BBD8ABD70E080E090E00E9403052EEE4A
:100130003CE74FE55FE30E94CF030E94DE01DC0154
:10014000CB0199BD88BD089548B3660F771F90E035
:1001500084509F4F062E02C0880F991F0A94E2F721
:1001600021E030E0062E02C0220F331F0A94E2F78E
:10017000820F815023E030E002C0220F331F6A95C6
:10018000E2F7422B842388BB089548B3FC018081A9
:1001900090E0880F991F21E030E0082E02C0220F66
:1001A000331F0A94E2F7922F915070E064507F4F12
:1001B000082E02C0660F771F0A94E2F7960F23E01D
:1001C00030E002C0220F331F8A95E2F7422B9423BE
:1001D00098BB089560E00E94C50008959C0180E0EE
:1001E00090E040ED57E004C0FA013197F1F7019635
:1001F00082179307C9F70895EF92FF920F931F9309
:10020000CF93DF930F92CDB7DEB77C01162F00E0BE
:1002100012C061E049830E94C500812F90E00E94D6
:10022000EE00C70162E00E94C500812F90E00E94AD
:10023000EE000F5F4981C701041759F70E94EA00D9
:100240000F90DF91CF911F910F91FF90EF90089544
:10025000CF93DF930F92CDB7DEB78983298181E0F9
:1002600090E0062E02C0880F991F0A94E2F730E052
:100270008223932302C0959587956A95E2F70F90A4
:10028000DF91CF910895DC011296ED91FC911397C7
:10029000908119968C911997809589238083089570
:1002A000EF920F93CF93DF9300D00F92CDB7DEB7CD
:1002B000FC0129830A83EB82718360835383428329
:1002C000898184834A8145836B81668329819B81EF
:1002D000291710F4998101C09B81928721E030E0B9
:1002E000D90102C0AA0FBB1F4A95E2F7AD01D9019F
:1002F00002C0AA0FBB1F8A95E2F7CD01840F02C08E
:10030000220F331F6A95E2F7820F8187CF010E9487
:1003100043010F900F900F90DF91CF910F91EF90CD
:100320000895FC0187810895FC01A081B1812C9181
:100330008185282320956681A581E48141E050E0F4
:10034000CA01062E02C0880F991F0A94E2F730E016
:100350008223932302C0959587956A95E2F7880FCB
:10036000880FBA010A2E02C0660F771F0A94E2F7BF
:100370006223732302C075956795AA95E2F7660F0D
:10038000860F0E2E02C0440F551F0A94E2F7422337
:10039000532302C055954795EA95E2F7840F0895D7
:1003A000CF93DF93EC010E9494019885981711F088
:1003B0009F8388878885DF91CF910895CF92DF92C0
:1003C000EF92FF920F931F936B017C0120E030E0CE
:1003D00040E05FE40E94D20487FD11C0C701B6016E
:1003E00020E030E040E05FE40E9497030E947C053B
:1003F0008B019C01005010402040304806C0C701CE
:10040000B6010E947C058B019C01B801C9011F91B6
:100410000F91FF90EF90DF90CF900895A0E0B0E0B3
:10042000E4E1F2E00C942708EC014B01FA01888129
:10043000823008F442C1DB019C91923008F43AC149
:10044000843059F4943009F038C1998111968C9117
:100450001197981709F02BC130C1943009F42AC1C3
:100460009230A9F4823009F028C1CE0128E0DC01E5
:100470000D90CD01DA010D92AD012150C1F7D401EB
:1004800011968C91119799818923818315C18230AE
:1004900009F410C1AA80BB80DB0112964D915C91DA
:1004A0001397CC80DD80EE80FF8014960D911D9116
:1004B0002D913C911797C501841B950BDC0197FF8B
:1004C00004C0AA27BB27A81BB90BA032B1050CF0AA
:1004D0006AC0181619068CF5280139010A2E04C0C5
:1004E00076946794579447940A94D2F741E050E089
:1004F00060E070E004C0440F551F661F771FAA9587
:10050000D2F7415050406040704040235123622355
:10051000732381E090E0A0E0B0E041155105610552
:10052000710521F480E090E0A0E0B0E08C019D0135
:10053000042915292629372942C0009709F43FC00C
:10054000AA0EBB1E260137010A2E04C076946794BA
:10055000579447940A94D2F741E050E060E070E08D
:1005600004C0440F551F661F771FAA95D2F741504C
:100570005040604070404C215D216E217F2181E020
:1005800090E0A0E0B0E0411551056105710521F44E
:1005900080E090E0A0E0B0E06C017D01C428D528A7
:1005A000E628F7280CC04A155B052CF400E010E0A3
:1005B00020E030E004C05A01CC24DD24760189819A
:1005C000D40111969C911197891709F445C088238D
:1005D00029F00C191D092E093F0908C0D701C601D1
:1005E000801B910BA20BB30B8C019D0137FD04C046
:1005F0001182B382A2820BC081E08183B382A28286
:1006000030952095109501951F4F2F4F3F4F048334
:100610001583268337830DC0880F991FAA1FBB1F20
:1006200084839583A683B783828193810197938383
:10063000828384819581A681B781AC01BD0141503F
:100640005040604070404F3F2FEF52072FEF62073E
:100650002FE3720708F30BC08183B382A2820C0DD3
:100660001D1D2E1D3F1D048315832683378383E0C4
:100670008083448155816681778177FF1DC0DB01CE
:10068000CA0181709070A070B0707695679557958B
:100690004795842B952BA62BB72B84839583A68314
:1006A000B7838281938101969383828305C0C0E6DC
:1006B000D0E003C0E40101C0EF01CE01CDB7DEB749
:1006C000E0E10C944308A0E2B0E0E9E6F3E00C942A
:1006D0003508DC01CB018D839E83AF83B8872983E6
:1006E0003A834B835C83CE010596BE01675E7F4FE4
:1006F0000E94FC06CE010196BE016F5E7F4F0E94F4
:10070000FC06CE014996BE016F5E7F4FAE01475F8A
:100710005F4F0E940E020E942206462F572F682F1D
:10072000792FCB01BA01A096E2E00C945108A0E227
:10073000B0E0EDE9F3E00C943508DC01CB018D83EA
:100740009E83AF83B88729833A834B835C83CE0132
:100750000596BE01675E7F4F0E94FC06CE010196A2
:10076000BE016F5E7F4F0E94FC068A8991E0892757
:100770008A8BCE014996BE016F5E7F4FAE01475F07
:100780005F4F0E940E020E942206462F572F682FAD
:10079000792FCB01BA01A096E2E00C945108A0E2B7
:1007A000B0E0E5EDF3E00C942708DC01CB018D838C
:1007B0009E83AF83B88729833A834B835C83CE01C2
:1007C0000596BE01675E7F4F0E94FC06CE01019632
:1007D000BE016F5E7F4F0E94FC06998D923078F0CB
:1007E00089898230C0F0943019F4823041F4CCC051
:1007F000843019F4923079F4C7C0923051F481E01A
:100800002A8D9A89291709F480E08A8FCE014996AA
:10081000BDC0823051F481E02A8D9A89291709F4EC
:1008200080E08A8BCE014196B1C04D8C5E8C6F8C7E
:1008300078A00D891E892F89388DE0E2F0E040E034
:1008400050E060E070E0882499245401CC24DD2439
:100850007601C201817090700097D9F0C00ED11E50
:10086000E21EF31EDB01CA01880D991DAA1DBB1DE6
:1008700041E050E060E070E0C016D106E206F30609
:1008800020F040E050E060E070E0480F591F6A1F20
:100890007B1F880C991CAA1CBB1C37FF08C081E079
:1008A00090E0A0E0B0E0882A992AAA2ABB2A000F8B
:1008B000111F221F331F76946794579447943197E2
:1008C00041F68B8D9C8D2B893C89820F931F02965C
:1008D0009C878B8781E02A8D9A89291709F480E00B
:1008E0008A872B853C8517C0CA018170907000975C
:1008F00061F0F694E794D794C79480E090E0A0E08C
:10090000B0E8C82AD92AEA2AFB2A7695679557952E
:1009100047952F5F3F4F77FDE7CFC9010BC0440FCD
:10092000551F661F771FF7FC4160CC0CDD1CEE1CC9
:10093000FF1C01974030A0E05A07A0E06A07A0E43E
:100940007A0768F38B879C87DB01CA018F779070E9
:10095000A070B07080349105A105B10561F447FD28
:100960000AC0C114D104E104F10429F0405C5F4FD6
:100970006F4F7F4F40784D875E876F87788B83E01E
:100980008987CE01099602C080E690E00E94220687
:10099000462F572F682F792FCB01BA01A096E0E19F
:1009A0000C944308A8E1B0E0E8EDF4E00C943508BD
:1009B000DC01CB018D839E83AF83B88729833A8383
:1009C0004B835C83CE010596BE016F5E7F4F0E9414
:1009D000FC06CE010196BE01675F7F4F0E94FC06B8
:1009E0008989823058F08985823040F0CE01419665
:1009F000BE01675F7F4F0E94650701C08FEF689659
:100A0000E2E00C945108CF92DF92EF92FF92CF93E5
:100A1000DF93CDB7DEB728970FB6F894DEBF0FBED1
:100A2000CDBF6B017C0183E08983D701C601882794
:100A3000B7FD83959927AA27BB27282F8A83C1143E
:100A4000D104E104F10419F482E0898337C08EE116
:100A500090E09C838B83222389F080E0C81680E09D
:100A6000D80680E0E80680E8F80669F1F094E094A2
:100A7000D094C094C11CD11CE11CF11CCD82DE823B
:100A8000EF82F886C701B6010E94CE059C01215075
:100A900030401216130694F4022E04C0CC0CDD1C58
:100AA000EE1CFF1C0A94D2F7CD82DE82EF82F8861C
:100AB0008EE190E0821B930B9C838B83CE01019689
:100AC0000E94220604C060E070E080E09FEC382FB6
:100AD000292F862F972FA32FB22FBC01CD01289647
:100AE0000FB6F894DEBF0FBECDBFDF91CF91FF9060
:100AF000EF90DF90CF900895ACE0B0E0E2E8F5E051
:100B00000C943308DC01CB0189839A83AB83BC83CB
:100B1000CE010196BE016B5F7F4F0E94FC068D8166
:100B2000823069F1823058F1843039F02F81388574
:100B300037FD25C02F31310544F08E81882321F106
:100B400000E010E020E030E823C08EE190E0821B5E
:100B5000930B09851A852B853C8504C0369527950E
:100B6000179507958A95D2F78E81882389F030955D
:100B70002095109501951F4F2F4F3F4F09C000E062
:100B800010E020E030E004C00FEF1FEF2FEF3FE751
:100B9000B801C9012C96E4E00C944F08CF92DF9283
:100BA000EF92FF920F931F938B019C01003080E026
:100BB000180781E0280780E0380758F40F3F110537
:100BC0002105310509F090F480E090E0A0E0B0E06C
:100BD00016C00030E0E01E07E0E02E07E1E03E072F
:100BE00050F480E190E0A0E0B0E009C088E090E03F
:100BF000A0E0B0E004C088E190E0A0E0B0E040E216
:100C000050E060E070E0481B590B6A0B7B0B6801F9
:100C1000790104C0F694E794D794C7948A95D2F7E3
:100C2000D701C60188599F4FFC018081481B51099B
:100C300061097109CA011F910F91FF90EF90DF9038
:100C4000CF900895CF92DF92EF92FF920F931F9370
:100C5000DC0114964D915D916D917C9117971196E1
:100C6000EC9111978C91823020F460618FEF90E0CD
:100C7000A8C0843009F49FC0823009F496C04115A1
:100C800051056105710509F493C012968D919C91EF
:100C900013972FEF823892070CF05BC022E83FEFEA
:100CA000281B390B2A3131056CF56A017B01022EB4
:100CB00004C0F694E794D794C7940A94D2F781E0DD
:100CC00090E0A0E0B0E004C0880F991FAA1FBB1FEE
:100CD0002A95D2F70197A109B10984239523A62368
:100CE000B72341E050E060E070E00097A105B10556
:100CF00021F440E050E060E070E04C295D296E296D
:100D00007F2904C040E050E060E070E0DB01CA01F0
:100D10008F779070A070B07080349105A105B105F7
:100D200039F447FF09C0405C5F4F6F4F7F4F04C0ED
:100D3000415C5F4F6F4F7F4F81E090E0403020E09B
:100D4000520720E0620720E4720738F580E090E067
:100D500024C0803891057CF58A019B010F771070C3
:100D600020703070003411052105310539F447FF3A
:100D700009C0405C5F4F6F4F7F4F04C0415C5F4FC5
:100D80006F4F7F4F77FD03C081589F4F06C0769508
:100D900067955795479580589F4F97E0769567954B
:100DA000579547959A95D1F70CC080E090E005C023
:100DB00080E090E006C08FEF90E040E050E060E01F
:100DC00070E0982F979599279795A62FAF77E7957D
:100DD000EE27E79586953A2F392B282F2E2B842F37
:100DE000952FA32FB22FBC01CD011F910F91FF9022
:100DF000EF90DF90CF900895DC01FB014C911196AC
:100E00005C91119712968C911297682F6F7770E012
:100E1000982F991F9927991F13962C911397822F1A
:100E2000880F892B90E0221F2227221F2183009701
:100E300039F5411551056105710511F482E029C0AC
:100E400082E89FEF9383828327E0440F551F661F3C
:100E5000771F2A95D1F783E0808309C0440F551F7F
:100E6000661F771F8281938101979383828340302D
:100E700080E0580780E0680780E4780778F320C0B6
:100E80008F3F910579F4411551056105710519F4FC
:100E900084E08083089564FF03C081E0808310C0F4
:100EA00010820EC08F5790409383828383E08083AB
:100EB00087E0440F551F661F771F8A95D1F770642E
:100EC000448355836683778308951F93FC01DB0178
:100ED0009081923008F44CC08C91823008F448C064
:100EE000943069F42181843039F411968C911197F2
:100EF00090E0821B910944C02223D1F13FC084308D
:100F000021F0923041F48230B1F111968C91119719
:100F10008823A1F12DC01181823001F111968C91AD
:100F200011971817D9F48281938112962D913C91D3
:100F300013972817390794F082179307BCF0448160
:100F400055816681778114968D919D910D90BC910C
:100F5000A02D84179507A607B70718F4112341F0B1
:100F60000DC0481759076A077B0728F4112331F091
:100F700081E090E005C080E090E002C08FEF9FEF3D
:100F80001F910895CF93DF93CDB7DEB72C970FB69F
:100F9000F894DEBF0FBECDBF0E946C00198282E0C4
:100FA000C82ED12CCC0EDD1EC60169E370E04AE3E9
:100FB00050E021E003E035E0E32E0E9450011D2DBA
:100FC000E8ECEE2EF12C8C2D912F0E94D001833075
:100FD00099F1843028F4813081F08230A0F405C08A
:100FE0008430A9F0883020F527C080E060E00E94BE
:100FF0008F00CE01019660E003C0CE01019661E052
:101000000E94C50019C082B38C6082BB06C0CE01AD
:10101000019662E00E94C50012BA86E966E90E9464
:101020008F00CE01019662E342E00E94FC0004C002
:1010300080E060E00E948F0028E833E1C70101975B
:10104000F1F721503040D1F7BECF2F923F924F920F
:101050005F926F927F928F929F92AF92BF92CF9248
:10106000DF92EF92FF920F931F93CF93DF93CDB751
:10107000DEB7CA1BDB0B0FB6F894DEBF0FBECDBFC9
:1010800009942A88398848885F846E847D848C849A
:101090009B84AA84B984C884DF80EE80FD800C81A3
:1010A0001B81AA81B981CE0FD11D0FB6F894DEBF86
:0C10B0000FBECDBFED010895F894FFCFF6
:1010BC000000000000000000000102020303030313
:1010CC0004040404040404040505050505050505CC
:1010DC0005050505050505050606060606060606AC
:1010EC000606060606060606060606060606060694
:1010FC00060606060606060607070707070707077C
:10110C000707070707070707070707070707070763
:10111C000707070707070707070707070707070753
:10112C000707070707070707070707070707070743
:10113C00070707070707070708080808080808082B
:10114C000808080808080808080808080808080813
:10115C000808080808080808080808080808080803
:10116C0008080808080808080808080808080808F3
:10117C0008080808080808080808080808080808E3
:10118C0008080808080808080808080808080808D3
:10119C0008080808080808080808080808080808C3
:1011AC0008080808080808080808080808080808B3
:0811BC000808080808080808EB
:00000001FF
